S016000041726475696E6F5F627574746F6E2E7372656341
S113000033C0000039C0000037C0000035C0000014
S113001033C0000031C000002FC000002DC000001C
S11300202BC0000029C0000027C0000025C000002C
S113003023C0000021C000001FC000001DC000003C
S11300401BC0000019C0000017C0000015C000004C
S113005013C0000011C000000FC000000DC000005C
S11300600BC0000009C0000011241FBECFEFD8E070
S1130070DEBFCDBF07D00EC0C3CF539A5B9808959F
S1130080559A0895FADFFCDF4B9B02C05D9AFCCFC2
S10B00905D98FACFF894FFCF4C
S9030000FC
